:030000000200D02B
:0C00D000787FE4F6D8FD7581090200037A
:10007B00D290C291D292C293D294C295D296C29789
:01008B002252
:10008C00D290C291D292C293C294C295C296D29788
:01009C002241
:10009D00C290D291C292D293C294C295D296C29777
:0100AD002230
:1000AE00C290C291C292C293C294C295C296C29796
:0100BE00221F
:1000BF00C290D291C292D293C294D295C296D29745
:0100CF00220E
:10000300E4F590F580C2A275A078208704D2A2807F
:1000130002C2A220B13C2080092081062082031263
:1000230000AE30800920810620820312007B2080ED
:100033000930810620820312008C3080093081064A
:1000430020820312009D2080092081063082031242
:1000530000BF30B1B530A40320A50630A30630A6F7
:100063000312007B30A40620A50312008C20A49A5F
:0800730030A59712009D809258
:00000001FF
